{
  "contractName": "ExamDistribution",
  "abi": [
    {
      "anonymous": false,
      "inputs": [
        {
          "indexed": false,
          "internalType": "uint256",
          "name": "examId",
          "type": "uint256"
        },
        {
          "indexed": false,
          "internalType": "uint256",
          "name": "releaseTime",
          "type": "uint256"
        }
      ],
      "name": "ExamCreated",
      "type": "event"
    },
    {
      "anonymous": false,
      "inputs": [
        {
          "indexed": false,
          "internalType": "uint256",
          "name": "examId",
          "type": "uint256"
        },
        {
          "indexed": false,
          "internalType": "address",
          "name": "center",
          "type": "address"
        }
      ],
      "name": "KeyReleased",
      "type": "event"
    },
    {
      "inputs": [],
      "name": "examCount",
      "outputs": [
        {
          "internalType": "uint256",
          "name": "",
          "type": "uint256"
        }
      ],
      "stateMutability": "view",
      "type": "function",
      "constant": true
    },
    {
      "inputs": [
        {
          "internalType": "uint256",
          "name": "",
          "type": "uint256"
        }
      ],
      "name": "exams",
      "outputs": [
        {
          "internalType": "string",
          "name": "ipfsHash",
          "type": "string"
        },
        {
          "internalType": "uint256",
          "name": "releaseTime",
          "type": "uint256"
        },
        {
          "internalType": "bool",
          "name": "distributed",
          "type": "bool"
        }
      ],
      "stateMutability": "view",
      "type": "function",
      "constant": true
    },
    {
      "inputs": [
        {
          "internalType": "string",
          "name": "_ipfsHash",
          "type": "string"
        },
        {
          "internalType": "uint256",
          "name": "_releaseTime",
          "type": "uint256"
        },
        {
          "internalType": "address[]",
          "name": "_authorizedCenters",
          "type": "address[]"
        }
      ],
      "name": "createExam",
      "outputs": [],
      "stateMutability": "nonpayable",
      "type": "function"
    },
    {
      "inputs": [
        {
          "internalType": "uint256",
          "name": "_examId",
          "type": "uint256"
        }
      ],
      "name": "getAuthorizedCenters",
      "outputs": [
        {
          "internalType": "address[]",
          "name": "",
          "type": "address[]"
        }
      ],
      "stateMutability": "view",
      "type": "function",
      "constant": true
    },
    {
      "inputs": [
        {
          "internalType": "uint256",
          "name": "_examId",
          "type": "uint256"
        }
      ],
      "name": "releaseKey",
      "outputs": [],
      "stateMutability": "nonpayable",
      "type": "function"
    }
  ],
  "bytecode": "0x608060405234801561001057600080fd5b506108d0806100206000396000f3fe608060405234801561001057600080fd5b50600436106100575760003560e01c80630dfb1dbf1461005c578063370c7e341461007a5780634198cb3f1461008f5780639d86db78146100b1578063f9f0d4b2146100c4575b600080fd5b6100646100e4565b60405161007191906107ca565b60405180910390f35b61008d61008836600461064c565b6100ea565b005b6100a261009d36600461064c565b610229565b604051610071939291906106b1565b61008d6100bf366004610594565b6102d7565b6100d76100d236600461064c565b6103a3565b6040516100719190610664565b60015481565b600081815260208190526040902060018101544210156101255760405162461bcd60e51b815260040161011c90610713565b60405180910390fd5b600381015460ff161561014a5760405162461bcd60e51b815260040161011c90610793565b6000805b60028301548110156101bd57336001600160a01b031683600201828154811061018757634e487b7160e01b600052603260045260246000fd5b6000918252602090912001546001600160a01b031614156101ab57600191506101bd565b806101b58161085d565b91505061014e565b50806101db5760405162461bcd60e51b815260040161011c90610748565b60038201805460ff191660011790556040517f0cac8cbe0881564303b729922929e23c69684713e9d4efefc67c19a591e0d8e89061021c90859033906107d3565b60405180910390a1505050565b60006020819052908152604090208054819061024490610822565b80601f016020809104026020016040519081016040528092919081815260200182805461027090610822565b80156102bd5780601f10610292576101008083540402835291602001916102bd565b820191906000526020600020905b8154815290600101906020018083116102a057829003601f168201915b50505050600183015460039093015491929160ff16905083565b600180549060006102e78361085d565b909155505060408051608081018252848152602080820185905281830184905260006060830181905260015481528082529290922081518051929391926103319284920190610410565b506020828101516001830155604083015180516103549260028501920190610494565b50606091909101516003909101805460ff19169115159190911790556001546040517fca794a5a6b3519d8e923d9aa4859398bf5aa7d6ce42874bdac3c2beddfb6f1c69161021c9185906107ea565b6000818152602081815260409182902060020180548351818402810184019094528084526060939283018282801561040457602002820191906000526020600020905b81546001600160a01b031681526001909101906020018083116103e6575b50505050509050919050565b82805461041c90610822565b90600052602060002090601f01602090048101928261043e5760008555610484565b82601f1061045757805160ff1916838001178555610484565b82800160010185558215610484579182015b82811115610484578251825591602001919060010190610469565b506104909291506104e9565b5090565b828054828255906000526020600020908101928215610484579160200282015b8281111561048457825182546001600160a01b0319166001600160a01b039091161782556020909201916001909101906104b4565b5b8082111561049057600081556001016104ea565b600082601f83011261050e578081fd5b8135602067ffffffffffffffff82111561052a5761052a610884565b8082026105388282016107f8565b838152828101908684018388018501891015610552578687fd5b8693505b858410156105885780356001600160a01b0381168114610574578788fd5b835260019390930192918401918401610556565b50979650505050505050565b6000806000606084860312156105a8578283fd5b833567ffffffffffffffff808211156105bf578485fd5b818601915086601f8301126105d2578485fd5b81356020828211156105e6576105e6610884565b6105f8601f8301601f191682016107f8565b828152898284870101111561060b578788fd5b82828601838301379182018101969096529486013593506040860135915080821115610635578283fd5b50610642868287016104fe565b9150509250925092565b60006020828403121561065d578081fd5b5035919050565b6020808252825182820181905260009190848201906040850190845b818110156106a55783516001600160a01b031683529284019291840191600101610680565b50909695505050505050565b6000606082528451806060840152815b818110156106de57602081880181015160808684010152016106c1565b818111156106ef5782608083860101525b5060208301949094525090151560408201526080601f909201601f19160101919050565b6020808252818101527f546865206578616d2063616e6e6f74206265206163636573736564207965742e604082015260600190565b6020808252602b908201527f596f7520617265206e6f7420617574686f72697a656420746f2061636365737360408201526a103a3434b99032bc30b69760a91b606082015260800190565b6020808252601a908201527f4578616d206b657920616c72656164792072656c65617365642e000000000000604082015260600190565b90815260200190565b9182526001600160a01b0316602082015260400190565b918252602082015260400190565b60405181810167ffffffffffffffff8111828210171561081a5761081a610884565b604052919050565b60028104600182168061083657607f821691505b6020821081141561085757634e487b7160e01b600052602260045260246000fd5b50919050565b600060001982141561087d57634e487b7160e01b81526011600452602481fd5b5060010190565b634e487b7160e01b600052604160045260246000fdfea2646970667358221220a07b5d2727d6427550af0c8fc8c34cde01517912f54b94f61fa4773ceaf8e77064736f6c63430008000033",
  "immutableReferences": {},
  "source": "// SPDX-License-Identifier: MIT\r\npragma solidity ^0.8.0;\r\n\r\ncontract ExamDistribution {\r\n    struct Exam {\r\n        string ipfsHash;  // IPFS hash of the exam paper\r\n        uint256 releaseTime;  // Timestamp when the exam can be accessed\r\n        address[] authorizedCenters;  // List of authorized exam centers\r\n        bool distributed;  // Indicates if the key has been released\r\n    }\r\n\r\n    mapping(uint256 => Exam) public exams;  // Mapping to store exams\r\n    uint256 public examCount;  // Counter to track the number of exams\r\n\r\n    event ExamCreated(uint256 examId, uint256 releaseTime);\r\n    event KeyReleased(uint256 examId, address center);\r\n\r\n    // Function to create an exam\r\n    function createExam(\r\n        string memory _ipfsHash,\r\n        uint256 _releaseTime,\r\n        address[] memory _authorizedCenters\r\n    ) public {\r\n        examCount++;\r\n        exams[examCount] = Exam({\r\n            ipfsHash: _ipfsHash,\r\n            releaseTime: _releaseTime,\r\n            authorizedCenters: _authorizedCenters,\r\n            distributed: false\r\n        });\r\n        emit ExamCreated(examCount, _releaseTime);\r\n    }\r\n\r\n    // Getter function to return authorized centers of a specific exam\r\n    function getAuthorizedCenters(uint256 _examId) public view returns (address[] memory) {\r\n        return exams[_examId].authorizedCenters;\r\n    }\r\n\r\n    // Function to release the exam key\r\n    function releaseKey(uint256 _examId) public {\r\n        Exam storage exam = exams[_examId];\r\n        require(block.timestamp >= exam.releaseTime, \"The exam cannot be accessed yet.\");\r\n        require(!exam.distributed, \"Exam key already released.\");\r\n\r\n        bool authorized = false;\r\n        for (uint256 i = 0; i < exam.authorizedCenters.length; i++) {\r\n            if (exam.authorizedCenters[i] == msg.sender) {\r\n                authorized = true;\r\n                break;\r\n            }\r\n        }\r\n        require(authorized, \"You are not authorized to access this exam.\");\r\n\r\n        exam.distributed = true;\r\n        emit KeyReleased(_examId, msg.sender);\r\n    }\r\n}\r\n",
  "sourcePath": "C:\\Users\\pranjal\\Blockchain-Based-Exam-Paper-Distribution\\contracts\\ExamDistribution.sol",
  "compiler": {
    "name": "solc",
    "version": "0.8.0+commit.c7dfd78e.Emscripten.clang"
  },
  "schemaVersion": "3.4.16",
  "updatedAt": "2024-11-02T18:16:48.826Z",
  "networkType": "ethereum",
  "devdoc": {
    "kind": "dev",
    "methods": {},
    "version": 1
  },
  "userdoc": {
    "kind": "user",
    "methods": {},
    "version": 1
  }
}